{
  "_format": "hh-sol-artifact-1",
  "contractName": "Verification",
  "sourceName": "contracts/Verification.sol",
  "abi": [
    {
      "inputs": [],
      "stateMutability": "nonpayable",
      "type": "constructor"
    },
    {
      "inputs": [
        {
          "internalType": "string",
          "name": "ssn",
          "type": "string"
        },
        {
          "internalType": "string",
          "name": "firstName",
          "type": "string"
        },
        {
          "internalType": "string",
          "name": "lastName",
          "type": "string"
        },
        {
          "internalType": "string",
          "name": "homeAddress",
          "type": "string"
        },
        {
          "internalType": "string",
          "name": "uni",
          "type": "string"
        }
      ],
      "name": "candidateHandler",
      "outputs": [],
      "stateMutability": "nonpayable",
      "type": "function"
    },
    {
      "inputs": [
        {
          "internalType": "string",
          "name": "ssn",
          "type": "string"
        }
      ],
      "name": "employerHandler",
      "outputs": [
        {
          "internalType": "string",
          "name": "",
          "type": "string"
        },
        {
          "internalType": "string",
          "name": "",
          "type": "string"
        },
        {
          "internalType": "string",
          "name": "",
          "type": "string"
        },
        {
          "internalType": "string",
          "name": "",
          "type": "string"
        },
        {
          "internalType": "string",
          "name": "",
          "type": "string"
        },
        {
          "internalType": "string",
          "name": "",
          "type": "string"
        }
      ],
      "stateMutability": "view",
      "type": "function"
    },
    {
      "inputs": [
        {
          "internalType": "string",
          "name": "university",
          "type": "string"
        },
        {
          "internalType": "string",
          "name": "ssn",
          "type": "string"
        },
        {
          "internalType": "string",
          "name": "degreeName",
          "type": "string"
        },
        {
          "internalType": "string",
          "name": "major",
          "type": "string"
        },
        {
          "internalType": "string",
          "name": "year",
          "type": "string"
        }
      ],
      "name": "institutionHandler",
      "outputs": [],
      "stateMutability": "nonpayable",
      "type": "function"
    },
    {
      "inputs": [],
      "name": "manager",
      "outputs": [
        {
          "internalType": "address",
          "name": "",
          "type": "address"
        }
      ],
      "stateMutability": "view",
      "type": "function"
    },
    {
      "inputs": [
        {
          "internalType": "string",
          "name": "",
          "type": "string"
        }
      ],
      "name": "storeCandidateDegreeInfo",
      "outputs": [
        {
          "internalType": "string",
          "name": "university",
          "type": "string"
        },
        {
          "internalType": "string",
          "name": "degreeName",
          "type": "string"
        },
        {
          "internalType": "string",
          "name": "major",
          "type": "string"
        },
        {
          "internalType": "string",
          "name": "year",
          "type": "string"
        }
      ],
      "stateMutability": "view",
      "type": "function"
    },
    {
      "inputs": [
        {
          "internalType": "string",
          "name": "",
          "type": "string"
        }
      ],
      "name": "storeCandidateInfo",
      "outputs": [
        {
          "internalType": "string",
          "name": "ssn",
          "type": "string"
        },
        {
          "internalType": "string",
          "name": "firstName",
          "type": "string"
        },
        {
          "internalType": "string",
          "name": "lastName",
          "type": "string"
        },
        {
          "internalType": "string",
          "name": "homeAddress",
          "type": "string"
        },
        {
          "internalType": "string",
          "name": "uni",
          "type": "string"
        }
      ],
      "stateMutability": "view",
      "type": "function"
    }
  ],
  "bytecode": "0x608060405234801561001057600080fd5b5033600260006101000a81548173ffffffffffffffffffffffffffffffffffffffff021916908373ffffffffffffffffffffffffffffffffffffffff1602179055506112f1806100616000396000f3fe608060405234801561001057600080fd5b50600436106100625760003560e01c80631b20d2f01461006757806331b842dd1461009b578063444785b6146100ce578063481c6a7514610103578063684b1a6514610121578063c94a4a9c1461013d575b600080fd5b610081600480360381019061007c9190610dbb565b610159565b604051610092959493929190610ff7565b60405180910390f35b6100b560048036038101906100b09190610dbb565b61044d565b6040516100c59493929190610f96565b60405180910390f35b6100e860048036038101906100e39190610dbb565b6106b3565b6040516100fa9695949392919061106d565b60405180910390f35b61010b610aed565b6040516101189190610f7b565b60405180910390f35b61013b60048036038101906101369190610dfc565b610b13565b005b61015760048036038101906101529190610dfc565b610bd0565b005b600181805160208101820180518482526020830160208501208183528095505050505050600091509050806000018054610192906111e9565b80601f01602080910402602001604051908101604052809291908181526020018280546101be906111e9565b801561020b5780601f106101e05761010080835404028352916020019161020b565b820191906000526020600020905b8154815290600101906020018083116101ee57829003601f168201915b505050505090806001018054610220906111e9565b80601f016020809104026020016040519081016040528092919081815260200182805461024c906111e9565b80156102995780601f1061026e57610100808354040283529160200191610299565b820191906000526020600020905b81548152906001019060200180831161027c57829003601f168201915b5050505050908060020180546102ae906111e9565b80601f01602080910402602001604051908101604052809291908181526020018280546102da906111e9565b80156103275780601f106102fc57610100808354040283529160200191610327565b820191906000526020600020905b81548152906001019060200180831161030a57829003601f168201915b50505050509080600301805461033c906111e9565b80601f0160208091040260200160405190810160405280929190818152602001828054610368906111e9565b80156103b55780601f1061038a576101008083540402835291602001916103b5565b820191906000526020600020905b81548152906001019060200180831161039857829003601f168201915b5050505050908060040180546103ca906111e9565b80601f01602080910402602001604051908101604052809291908181526020018280546103f6906111e9565b80156104435780601f1061041857610100808354040283529160200191610443565b820191906000526020600020905b81548152906001019060200180831161042657829003601f168201915b5050505050905085565b600081805160208101820180518482526020830160208501208183528095505050505050600091509050806000018054610486906111e9565b80601f01602080910402602001604051908101604052809291908181526020018280546104b2906111e9565b80156104ff5780601f106104d4576101008083540402835291602001916104ff565b820191906000526020600020905b8154815290600101906020018083116104e257829003601f168201915b505050505090806001018054610514906111e9565b80601f0160208091040260200160405190810160405280929190818152602001828054610540906111e9565b801561058d5780601f106105625761010080835404028352916020019161058d565b820191906000526020600020905b81548152906001019060200180831161057057829003601f168201915b5050505050908060020180546105a2906111e9565b80601f01602080910402602001604051908101604052809291908181526020018280546105ce906111e9565b801561061b5780601f106105f05761010080835404028352916020019161061b565b820191906000526020600020905b8154815290600101906020018083116105fe57829003601f168201915b505050505090806003018054610630906111e9565b80601f016020809104026020016040519081016040528092919081815260200182805461065c906111e9565b80156106a95780601f1061067e576101008083540402835291602001916106a9565b820191906000526020600020905b81548152906001019060200180831161068c57829003601f168201915b5050505050905084565b60608060608060608060006001886040516106ce9190610f64565b908152602001604051809103902060010180546106ea906111e9565b80601f0160208091040260200160405190810160405280929190818152602001828054610716906111e9565b80156107635780601f1061073857610100808354040283529160200191610763565b820191906000526020600020905b81548152906001019060200180831161074657829003601f168201915b50505050509050600060018960405161077c9190610f64565b90815260200160405180910390206002018054610798906111e9565b80601f01602080910402602001604051908101604052809291908181526020018280546107c4906111e9565b80156108115780601f106107e657610100808354040283529160200191610811565b820191906000526020600020905b8154815290600101906020018083116107f457829003601f168201915b505050505090506000808a6040516108299190610f64565b90815260200160405180910390206000018054610845906111e9565b80601f0160208091040260200160405190810160405280929190818152602001828054610871906111e9565b80156108be5780601f10610893576101008083540402835291602001916108be565b820191906000526020600020905b8154815290600101906020018083116108a157829003601f168201915b505050505090506000808b6040516108d69190610f64565b908152602001604051809103902060020180546108f2906111e9565b80601f016020809104026020016040519081016040528092919081815260200182805461091e906111e9565b801561096b5780601f106109405761010080835404028352916020019161096b565b820191906000526020600020905b81548152906001019060200180831161094e57829003601f168201915b505050505090506000808c6040516109839190610f64565b9081526020016040518091039020600101805461099f906111e9565b80601f01602080910402602001604051908101604052809291908181526020018280546109cb906111e9565b8015610a185780601f106109ed57610100808354040283529160200191610a18565b820191906000526020600020905b8154815290600101906020018083116109fb57829003601f168201915b505050505090506000808d604051610a309190610f64565b90815260200160405180910390206003018054610a4c906111e9565b80601f0160208091040260200160405190810160405280929190818152602001828054610a78906111e9565b8015610ac55780601f10610a9a57610100808354040283529160200191610ac5565b820191906000526020600020905b815481529060010190602001808311610aa857829003601f168201915b505050505090508585858585859b509b509b509b509b509b5050505050505091939550919395565b600260009054906101000a900473ffffffffffffffffffffffffffffffffffffffff1681565b604051806080016040528086815260200184815260200183815260200182815250600085604051610b449190610f64565b90815260200160405180910390206000820151816000019080519060200190610b6e929190610cb0565b506020820151816001019080519060200190610b8b929190610cb0565b506040820151816002019080519060200190610ba8929190610cb0565b506060820151816003019080519060200190610bc5929190610cb0565b509050505050505050565b6040518060a0016040528086815260200185815260200184815260200183815260200182815250600186604051610c079190610f64565b90815260200160405180910390206000820151816000019080519060200190610c31929190610cb0565b506020820151816001019080519060200190610c4e929190610cb0565b506040820151816002019080519060200190610c6b929190610cb0565b506060820151816003019080519060200190610c88929190610cb0565b506080820151816004019080519060200190610ca5929190610cb0565b509050505050505050565b828054610cbc906111e9565b90600052602060002090601f016020900481019282610cde5760008555610d25565b82601f10610cf757805160ff1916838001178555610d25565b82800160010185558215610d25579182015b82811115610d24578251825591602001919060010190610d09565b5b509050610d329190610d36565b5090565b5b80821115610d4f576000816000905550600101610d37565b5090565b6000610d66610d618461111d565b6110f8565b905082815260208101848484011115610d7e57600080fd5b610d898482856111a7565b509392505050565b600082601f830112610da257600080fd5b8135610db2848260208601610d53565b91505092915050565b600060208284031215610dcd57600080fd5b600082013567ffffffffffffffff811115610de757600080fd5b610df384828501610d91565b91505092915050565b600080600080600060a08688031215610e1457600080fd5b600086013567ffffffffffffffff811115610e2e57600080fd5b610e3a88828901610d91565b955050602086013567ffffffffffffffff811115610e5757600080fd5b610e6388828901610d91565b945050604086013567ffffffffffffffff811115610e8057600080fd5b610e8c88828901610d91565b935050606086013567ffffffffffffffff811115610ea957600080fd5b610eb588828901610d91565b925050608086013567ffffffffffffffff811115610ed257600080fd5b610ede88828901610d91565b9150509295509295909350565b610ef481611175565b82525050565b6000610f058261114e565b610f0f8185611159565b9350610f1f8185602086016111b6565b610f28816112aa565b840191505092915050565b6000610f3e8261114e565b610f48818561116a565b9350610f588185602086016111b6565b80840191505092915050565b6000610f708284610f33565b915081905092915050565b6000602082019050610f906000830184610eeb565b92915050565b60006080820190508181036000830152610fb08187610efa565b90508181036020830152610fc48186610efa565b90508181036040830152610fd88185610efa565b90508181036060830152610fec8184610efa565b905095945050505050565b600060a08201905081810360008301526110118188610efa565b905081810360208301526110258187610efa565b905081810360408301526110398186610efa565b9050818103606083015261104d8185610efa565b905081810360808301526110618184610efa565b90509695505050505050565b600060c08201905081810360008301526110878189610efa565b9050818103602083015261109b8188610efa565b905081810360408301526110af8187610efa565b905081810360608301526110c38186610efa565b905081810360808301526110d78185610efa565b905081810360a08301526110eb8184610efa565b9050979650505050505050565b6000611102611113565b905061110e828261121b565b919050565b6000604051905090565b600067ffffffffffffffff8211156111385761113761127b565b5b611141826112aa565b9050602081019050919050565b600081519050919050565b600082825260208201905092915050565b600081905092915050565b600061118082611187565b9050919050565b600073ffffffffffffffffffffffffffffffffffffffff82169050919050565b82818337600083830152505050565b60005b838110156111d45780820151818401526020810190506111b9565b838111156111e3576000848401525b50505050565b6000600282049050600182168061120157607f821691505b602082108114156112155761121461124c565b5b50919050565b611224826112aa565b810181811067ffffffffffffffff821117156112435761124261127b565b5b80604052505050565b7f4e487b7100000000000000000000000000000000000000000000000000000000600052602260045260246000fd5b7f4e487b7100000000000000000000000000000000000000000000000000000000600052604160045260246000fd5b6000601f19601f830116905091905056fea26469706673582212208d323700408946182d18ff61dc23169c83713c03c22780df9254a730021dc9e164736f6c63430008040033",
  "linkReferences": {},
  "deployedLinkReferences": {}
}