{
  "_format": "hh-sol-artifact-1",
  "contractName": "Verification",
  "sourceName": "contracts/Verification.sol",
  "abi": [
    {
      "inputs": [],
      "stateMutability": "nonpayable",
      "type": "constructor"
    },
    {
      "inputs": [
        {
          "internalType": "int256",
          "name": "ssn",
          "type": "int256"
        },
        {
          "internalType": "string",
          "name": "firstName",
          "type": "string"
        },
        {
          "internalType": "string",
          "name": "lastName",
          "type": "string"
        },
        {
          "internalType": "string",
          "name": "homeAddress",
          "type": "string"
        },
        {
          "internalType": "string",
          "name": "uni",
          "type": "string"
        }
      ],
      "name": "candidateHandler",
      "outputs": [],
      "stateMutability": "nonpayable",
      "type": "function"
    },
    {
      "inputs": [
        {
          "internalType": "int256",
          "name": "ssn",
          "type": "int256"
        }
      ],
      "name": "employerHandler",
      "outputs": [
        {
          "internalType": "string",
          "name": "",
          "type": "string"
        },
        {
          "internalType": "string",
          "name": "",
          "type": "string"
        },
        {
          "internalType": "string",
          "name": "",
          "type": "string"
        },
        {
          "internalType": "string",
          "name": "",
          "type": "string"
        },
        {
          "internalType": "string",
          "name": "",
          "type": "string"
        },
        {
          "internalType": "int256",
          "name": "",
          "type": "int256"
        }
      ],
      "stateMutability": "view",
      "type": "function"
    },
    {
      "inputs": [
        {
          "internalType": "string",
          "name": "university",
          "type": "string"
        },
        {
          "internalType": "int256",
          "name": "ssn",
          "type": "int256"
        },
        {
          "internalType": "string",
          "name": "degreeName",
          "type": "string"
        },
        {
          "internalType": "string",
          "name": "major",
          "type": "string"
        },
        {
          "internalType": "int256",
          "name": "year",
          "type": "int256"
        }
      ],
      "name": "institutionHandler",
      "outputs": [],
      "stateMutability": "nonpayable",
      "type": "function"
    },
    {
      "inputs": [],
      "name": "manager",
      "outputs": [
        {
          "internalType": "address",
          "name": "",
          "type": "address"
        }
      ],
      "stateMutability": "view",
      "type": "function"
    },
    {
      "inputs": [
        {
          "internalType": "int256",
          "name": "",
          "type": "int256"
        }
      ],
      "name": "storeCandidateDegreeInfo",
      "outputs": [
        {
          "internalType": "string",
          "name": "university",
          "type": "string"
        },
        {
          "internalType": "string",
          "name": "degreeName",
          "type": "string"
        },
        {
          "internalType": "string",
          "name": "major",
          "type": "string"
        },
        {
          "internalType": "int256",
          "name": "year",
          "type": "int256"
        }
      ],
      "stateMutability": "view",
      "type": "function"
    },
    {
      "inputs": [
        {
          "internalType": "int256",
          "name": "",
          "type": "int256"
        }
      ],
      "name": "storeCandidateInfo",
      "outputs": [
        {
          "internalType": "int256",
          "name": "ssn",
          "type": "int256"
        },
        {
          "internalType": "string",
          "name": "firstName",
          "type": "string"
        },
        {
          "internalType": "string",
          "name": "lastName",
          "type": "string"
        },
        {
          "internalType": "string",
          "name": "homeAddress",
          "type": "string"
        },
        {
          "internalType": "string",
          "name": "uni",
          "type": "string"
        }
      ],
      "stateMutability": "view",
      "type": "function"
    }
  ],
  "bytecode": "0x608060405234801561001057600080fd5b5033600260006101000a81548173ffffffffffffffffffffffffffffffffffffffff021916908373ffffffffffffffffffffffffffffffffffffffff16021790555061111a806100616000396000f3fe608060405234801561001057600080fd5b50600436106100625760003560e01c8063481c6a751461006757806359ff520e146100855780636ce2df4d146100a15780636e0a5edd146100d4578063cb11dea614610108578063e4af63dc1461013d575b600080fd5b61006f610159565b60405161007c9190610da3565b60405180910390f35b61009f600480360381019061009a9190610bb6565b61017f565b005b6100bb60048036038101906100b69190610b8d565b610241565b6040516100cb9493929190610e2d565b60405180910390f35b6100ee60048036038101906100e99190610b8d565b610409565b6040516100ff959493929190610dbe565b60405180910390f35b610122600480360381019061011d9190610b8d565b61065f565b60405161013496959493929190610e87565b60405180910390f35b61015760048036038101906101529190610c8d565b6109cf565b005b600260009054906101000a900473ffffffffffffffffffffffffffffffffffffffff1681565b6040518060a0016040528086815260200185815260200184815260200183815260200182815250600160008781526020019081526020016000206000820151816000015560208201518160010190805190602001906101df929190610a6d565b5060408201518160020190805190602001906101fc929190610a6d565b506060820151816003019080519060200190610219929190610a6d565b506080820151816004019080519060200190610236929190610a6d565b509050505050505050565b600060205280600052604060002060009150905080600001805461026490610ffb565b80601f016020809104026020016040519081016040528092919081815260200182805461029090610ffb565b80156102dd5780601f106102b2576101008083540402835291602001916102dd565b820191906000526020600020905b8154815290600101906020018083116102c057829003601f168201915b5050505050908060010180546102f290610ffb565b80601f016020809104026020016040519081016040528092919081815260200182805461031e90610ffb565b801561036b5780601f106103405761010080835404028352916020019161036b565b820191906000526020600020905b81548152906001019060200180831161034e57829003601f168201915b50505050509080600201805461038090610ffb565b80601f01602080910402602001604051908101604052809291908181526020018280546103ac90610ffb565b80156103f95780601f106103ce576101008083540402835291602001916103f9565b820191906000526020600020905b8154815290600101906020018083116103dc57829003601f168201915b5050505050908060030154905084565b600160205280600052604060002060009150905080600001549080600101805461043290610ffb565b80601f016020809104026020016040519081016040528092919081815260200182805461045e90610ffb565b80156104ab5780601f10610480576101008083540402835291602001916104ab565b820191906000526020600020905b81548152906001019060200180831161048e57829003601f168201915b5050505050908060020180546104c090610ffb565b80601f01602080910402602001604051908101604052809291908181526020018280546104ec90610ffb565b80156105395780601f1061050e57610100808354040283529160200191610539565b820191906000526020600020905b81548152906001019060200180831161051c57829003601f168201915b50505050509080600301805461054e90610ffb565b80601f016020809104026020016040519081016040528092919081815260200182805461057a90610ffb565b80156105c75780601f1061059c576101008083540402835291602001916105c7565b820191906000526020600020905b8154815290600101906020018083116105aa57829003601f168201915b5050505050908060040180546105dc90610ffb565b80601f016020809104026020016040519081016040528092919081815260200182805461060890610ffb565b80156106555780601f1061062a57610100808354040283529160200191610655565b820191906000526020600020905b81548152906001019060200180831161063857829003601f168201915b5050505050905085565b606080606080606060008060016000898152602001908152602001600020600101805461068b90610ffb565b80601f01602080910402602001604051908101604052809291908181526020018280546106b790610ffb565b80156107045780601f106106d957610100808354040283529160200191610704565b820191906000526020600020905b8154815290600101906020018083116106e757829003601f168201915b505050505090506000600160008a8152602001908152602001600020600201805461072e90610ffb565b80601f016020809104026020016040519081016040528092919081815260200182805461075a90610ffb565b80156107a75780601f1061077c576101008083540402835291602001916107a7565b820191906000526020600020905b81548152906001019060200180831161078a57829003601f168201915b5050505050905060008060008b815260200190815260200160002060000180546107d090610ffb565b80601f01602080910402602001604051908101604052809291908181526020018280546107fc90610ffb565b80156108495780601f1061081e57610100808354040283529160200191610849565b820191906000526020600020905b81548152906001019060200180831161082c57829003601f168201915b5050505050905060008060008c8152602001908152602001600020600201805461087290610ffb565b80601f016020809104026020016040519081016040528092919081815260200182805461089e90610ffb565b80156108eb5780601f106108c0576101008083540402835291602001916108eb565b820191906000526020600020905b8154815290600101906020018083116108ce57829003601f168201915b5050505050905060008060008d8152602001908152602001600020600101805461091490610ffb565b80601f016020809104026020016040519081016040528092919081815260200182805461094090610ffb565b801561098d5780601f106109625761010080835404028352916020019161098d565b820191906000526020600020905b81548152906001019060200180831161097057829003601f168201915b5050505050905060008060008e81526020019081526020016000206003015490508585858585859b509b509b509b509b509b5050505050505091939550919395565b6040518060800160405280868152602001848152602001838152602001828152506000808681526020019081526020016000206000820151816000019080519060200190610a1e929190610a6d565b506020820151816001019080519060200190610a3b929190610a6d565b506040820151816002019080519060200190610a58929190610a6d565b50606082015181600301559050505050505050565b828054610a7990610ffb565b90600052602060002090601f016020900481019282610a9b5760008555610ae2565b82601f10610ab457805160ff1916838001178555610ae2565b82800160010185558215610ae2579182015b82811115610ae1578251825591602001919060010190610ac6565b5b509050610aef9190610af3565b5090565b5b80821115610b0c576000816000905550600101610af4565b5090565b6000610b23610b1e84610f30565b610f0b565b905082815260208101848484011115610b3b57600080fd5b610b46848285610fb9565b509392505050565b600081359050610b5d816110cd565b92915050565b600082601f830112610b7457600080fd5b8135610b84848260208601610b10565b91505092915050565b600060208284031215610b9f57600080fd5b6000610bad84828501610b4e565b91505092915050565b600080600080600060a08688031215610bce57600080fd5b6000610bdc88828901610b4e565b955050602086013567ffffffffffffffff811115610bf957600080fd5b610c0588828901610b63565b945050604086013567ffffffffffffffff811115610c2257600080fd5b610c2e88828901610b63565b935050606086013567ffffffffffffffff811115610c4b57600080fd5b610c5788828901610b63565b925050608086013567ffffffffffffffff811115610c7457600080fd5b610c8088828901610b63565b9150509295509295909350565b600080600080600060a08688031215610ca557600080fd5b600086013567ffffffffffffffff811115610cbf57600080fd5b610ccb88828901610b63565b9550506020610cdc88828901610b4e565b945050604086013567ffffffffffffffff811115610cf957600080fd5b610d0588828901610b63565b935050606086013567ffffffffffffffff811115610d2257600080fd5b610d2e88828901610b63565b9250506080610d3f88828901610b4e565b9150509295509295909350565b610d5581610f7d565b82525050565b610d6481610f8f565b82525050565b6000610d7582610f61565b610d7f8185610f6c565b9350610d8f818560208601610fc8565b610d98816110bc565b840191505092915050565b6000602082019050610db86000830184610d4c565b92915050565b600060a082019050610dd36000830188610d5b565b8181036020830152610de58187610d6a565b90508181036040830152610df98186610d6a565b90508181036060830152610e0d8185610d6a565b90508181036080830152610e218184610d6a565b90509695505050505050565b60006080820190508181036000830152610e478187610d6a565b90508181036020830152610e5b8186610d6a565b90508181036040830152610e6f8185610d6a565b9050610e7e6060830184610d5b565b95945050505050565b600060c0820190508181036000830152610ea18189610d6a565b90508181036020830152610eb58188610d6a565b90508181036040830152610ec98187610d6a565b90508181036060830152610edd8186610d6a565b90508181036080830152610ef18185610d6a565b9050610f0060a0830184610d5b565b979650505050505050565b6000610f15610f26565b9050610f21828261102d565b919050565b6000604051905090565b600067ffffffffffffffff821115610f4b57610f4a61108d565b5b610f54826110bc565b9050602081019050919050565b600081519050919050565b600082825260208201905092915050565b6000610f8882610f99565b9050919050565b6000819050919050565b600073ffffffffffffffffffffffffffffffffffffffff82169050919050565b82818337600083830152505050565b60005b83811015610fe6578082015181840152602081019050610fcb565b83811115610ff5576000848401525b50505050565b6000600282049050600182168061101357607f821691505b602082108114156110275761102661105e565b5b50919050565b611036826110bc565b810181811067ffffffffffffffff821117156110555761105461108d565b5b80604052505050565b7f4e487b7100000000000000000000000000000000000000000000000000000000600052602260045260246000fd5b7f4e487b7100000000000000000000000000000000000000000000000000000000600052604160045260246000fd5b6000601f19601f8301169050919050565b6110d681610f8f565b81146110e157600080fd5b5056fea264697066735822122094f63e2f13d63f16633adfefc7c0441084f580b8a8ae562e7e4f6afc32c49a8864736f6c63430008040033",
  "linkReferences": {},
  "deployedLinkReferences": {}
}